:060000000A128A110C280F
:10000800FE00030EF0000A08F1000A128A111529F1
:100018000A128A110F2883120313AF0183010A12EF
:100028008A11AF28003083120313A3000030A20006
:100038000030A1000030A000750874047304720435
:100048000319272828287528A401A40A382801306C
:10005800FA000310F20DF30DF40DF50DFA0B2D282F
:100068000130FF007F08A407F51F3B283C282B28F8
:100078000130FA000310A00DA10DA20DA30DFA0B7B
:100088003E2875087902031D532874087802031D59
:10009800532873087702031D532872087602031C3D
:1000A8005628572866287208F6027308031C730F2F
:1000B800F7027408031C740FF8027508031C750F07
:1000C800F902201401300310F50CF40CF30CF20CB7
:1000D800FF3E031D67280130A402031D74287528FC
:1000E8003C282308F5002208F4002108F300200822
:1000F800F200080083120313981718162508A900A0
:100108002608AA002708AB002808AC000430031012
:10011800A90DAA0DAB0DAC0DFF3E031D8B282C08B5
:10012800F5002B08F4002A08F3002908F200013032
:10013800F9003130F8002D30F7000030F6000A12CF
:100148008A1116200A128A117208FF3E83160313B9
:1001580099008C16080083120313AD01AE010A1230
:100168008A11FD200A128A11831203132F0803191A
:10017800BE28BF28C8282F080A128A113C210A1253
:100188008A1183120313AF010130AD020030031C42
:10019800AE03AE022D0A031DD5282E0A031DD5284D
:1001A800D628B8285030AD00C330AE00B8280A129F
:1001B8008A110C28F300F028730884000A128A11A7
:1001C8002A210A128A110A128A113C210A128A115A
:1001D8000130FF007F08F307730884000A128A11B0
:1001E8002A210A128A11003A031DFB28FC28E0285C
:1001F8000800003083120313A8000030A70009305C
:10020800A6006030A5000A128A117E200A128A11FF
:1002180001300A128A11DE200A128A110B178B1775
:100228000800831203138C1E1A291B292329981CE2
:100238001E291F29202998101A08AF008C1271084E
:100248008A00700E8300FE0E7E0E090001308A00BF
:100258000408840A820700345434793470346534CD
:10026800203448346534723465340A340D3400342B
:10027800F20072088312031399000C1E44294529C1
:0602880041290C120800E0
:08400000FF3FFF3FFF3FFF3FC0
:02400E00FB3F76
:00000001FF
